{
  "_format": "hh-sol-artifact-1",
  "contractName": "MySet",
  "sourceName": "contracts/facets/MySet.sol",
  "abi": [
    {
      "inputs": [],
      "stateMutability": "nonpayable",
      "type": "constructor"
    },
    {
      "anonymous": false,
      "inputs": [
        {
          "indexed": true,
          "internalType": "address",
          "name": "account",
          "type": "address"
        },
        {
          "indexed": true,
          "internalType": "address",
          "name": "operator",
          "type": "address"
        },
        {
          "indexed": false,
          "internalType": "bool",
          "name": "approved",
          "type": "bool"
        }
      ],
      "name": "ApprovalForAll",
      "type": "event"
    },
    {
      "anonymous": false,
      "inputs": [
        {
          "indexed": true,
          "internalType": "address",
          "name": "operator",
          "type": "address"
        },
        {
          "indexed": true,
          "internalType": "address",
          "name": "from",
          "type": "address"
        },
        {
          "indexed": true,
          "internalType": "address",
          "name": "to",
          "type": "address"
        },
        {
          "indexed": false,
          "internalType": "uint256[]",
          "name": "ids",
          "type": "uint256[]"
        },
        {
          "indexed": false,
          "internalType": "uint256[]",
          "name": "values",
          "type": "uint256[]"
        }
      ],
      "name": "TransferBatch",
      "type": "event"
    },
    {
      "anonymous": false,
      "inputs": [
        {
          "indexed": true,
          "internalType": "address",
          "name": "operator",
          "type": "address"
        },
        {
          "indexed": true,
          "internalType": "address",
          "name": "from",
          "type": "address"
        },
        {
          "indexed": true,
          "internalType": "address",
          "name": "to",
          "type": "address"
        },
        {
          "indexed": false,
          "internalType": "uint256",
          "name": "id",
          "type": "uint256"
        },
        {
          "indexed": false,
          "internalType": "uint256",
          "name": "value",
          "type": "uint256"
        }
      ],
      "name": "TransferSingle",
      "type": "event"
    },
    {
      "anonymous": false,
      "inputs": [
        {
          "indexed": false,
          "internalType": "string",
          "name": "value",
          "type": "string"
        },
        {
          "indexed": true,
          "internalType": "uint256",
          "name": "tokenId",
          "type": "uint256"
        }
      ],
      "name": "URI",
      "type": "event"
    },
    {
      "inputs": [
        {
          "internalType": "address",
          "name": "account",
          "type": "address"
        },
        {
          "internalType": "uint256",
          "name": "id",
          "type": "uint256"
        },
        {
          "internalType": "uint256",
          "name": "amount",
          "type": "uint256"
        }
      ],
      "name": "__burn",
      "outputs": [],
      "stateMutability": "nonpayable",
      "type": "function"
    },
    {
      "inputs": [
        {
          "internalType": "address",
          "name": "account",
          "type": "address"
        },
        {
          "internalType": "uint256",
          "name": "id",
          "type": "uint256"
        },
        {
          "internalType": "uint256",
          "name": "amount",
          "type": "uint256"
        }
      ],
      "name": "__mint",
      "outputs": [],
      "stateMutability": "nonpayable",
      "type": "function"
    },
    {
      "inputs": [
        {
          "internalType": "uint256",
          "name": "id",
          "type": "uint256"
        }
      ],
      "name": "accountsByToken",
      "outputs": [
        {
          "internalType": "address[]",
          "name": "",
          "type": "address[]"
        }
      ],
      "stateMutability": "view",
      "type": "function"
    },
    {
      "inputs": [
        {
          "internalType": "address",
          "name": "account",
          "type": "address"
        },
        {
          "internalType": "uint256",
          "name": "id",
          "type": "uint256"
        }
      ],
      "name": "balanceOf",
      "outputs": [
        {
          "internalType": "uint256",
          "name": "",
          "type": "uint256"
        }
      ],
      "stateMutability": "view",
      "type": "function"
    },
    {
      "inputs": [
        {
          "internalType": "address[]",
          "name": "accounts",
          "type": "address[]"
        },
        {
          "internalType": "uint256[]",
          "name": "ids",
          "type": "uint256[]"
        }
      ],
      "name": "balanceOfBatch",
      "outputs": [
        {
          "internalType": "uint256[]",
          "name": "",
          "type": "uint256[]"
        }
      ],
      "stateMutability": "view",
      "type": "function"
    },
    {
      "inputs": [
        {
          "internalType": "address",
          "name": "account",
          "type": "address"
        },
        {
          "internalType": "address",
          "name": "operator",
          "type": "address"
        }
      ],
      "name": "isApprovedForAll",
      "outputs": [
        {
          "internalType": "bool",
          "name": "",
          "type": "bool"
        }
      ],
      "stateMutability": "view",
      "type": "function"
    },
    {
      "inputs": [
        {
          "internalType": "address",
          "name": "from",
          "type": "address"
        },
        {
          "internalType": "address",
          "name": "to",
          "type": "address"
        },
        {
          "internalType": "uint256[]",
          "name": "ids",
          "type": "uint256[]"
        },
        {
          "internalType": "uint256[]",
          "name": "amounts",
          "type": "uint256[]"
        },
        {
          "internalType": "bytes",
          "name": "data",
          "type": "bytes"
        }
      ],
      "name": "safeBatchTransferFrom",
      "outputs": [],
      "stateMutability": "nonpayable",
      "type": "function"
    },
    {
      "inputs": [
        {
          "internalType": "address",
          "name": "from",
          "type": "address"
        },
        {
          "internalType": "address",
          "name": "to",
          "type": "address"
        },
        {
          "internalType": "uint256",
          "name": "id",
          "type": "uint256"
        },
        {
          "internalType": "uint256",
          "name": "amount",
          "type": "uint256"
        },
        {
          "internalType": "bytes",
          "name": "data",
          "type": "bytes"
        }
      ],
      "name": "safeTransferFrom",
      "outputs": [],
      "stateMutability": "nonpayable",
      "type": "function"
    },
    {
      "inputs": [
        {
          "internalType": "address",
          "name": "operator",
          "type": "address"
        },
        {
          "internalType": "bool",
          "name": "status",
          "type": "bool"
        }
      ],
      "name": "setApprovalForAll",
      "outputs": [],
      "stateMutability": "nonpayable",
      "type": "function"
    },
    {
      "inputs": [
        {
          "internalType": "bytes4",
          "name": "interfaceId",
          "type": "bytes4"
        }
      ],
      "name": "supportsInterface",
      "outputs": [
        {
          "internalType": "bool",
          "name": "",
          "type": "bool"
        }
      ],
      "stateMutability": "view",
      "type": "function"
    },
    {
      "inputs": [
        {
          "internalType": "address",
          "name": "account",
          "type": "address"
        }
      ],
      "name": "tokensByAccount",
      "outputs": [
        {
          "internalType": "uint256[]",
          "name": "",
          "type": "uint256[]"
        }
      ],
      "stateMutability": "view",
      "type": "function"
    },
    {
      "inputs": [
        {
          "internalType": "uint256",
          "name": "id",
          "type": "uint256"
        }
      ],
      "name": "totalHolders",
      "outputs": [
        {
          "internalType": "uint256",
          "name": "",
          "type": "uint256"
        }
      ],
      "stateMutability": "view",
      "type": "function"
    },
    {
      "inputs": [
        {
          "internalType": "uint256",
          "name": "id",
          "type": "uint256"
        }
      ],
      "name": "totalSupply",
      "outputs": [
        {
          "internalType": "uint256",
          "name": "",
          "type": "uint256"
        }
      ],
      "stateMutability": "view",
      "type": "function"
    },
    {
      "inputs": [
        {
          "internalType": "uint256",
          "name": "tokenId",
          "type": "uint256"
        }
      ],
      "name": "uri",
      "outputs": [
        {
          "internalType": "string",
          "name": "",
          "type": "string"
        }
      ],
      "stateMutability": "view",
      "type": "function"
    }
  ],
  "bytecode": "0x60806040523480156200001157600080fd5b50620000637fd9b67a260000000000000000000000000000000000000000000000000000000060016200004e6200006960201b62000ac91760201c565b6200009660201b62000af6179092919060201c565b620001f5565b6000807f326d0c59a7612f6a9919e2a8ee333c80ba689d8ba2634de89c85cbb04832e70590508091505090565b63ffffffff60e01b827bffffffffffffffffffffffffffffffffffffffffffffffffffffffff1916141562000102576040517f08c379a0000000000000000000000000000000000000000000000000000000008152600401620000f990620001d3565b60405180910390fd5b80836000016000847bffffffffffffffffffffffffffffffffffffffffffffffffffffffff19167bffffffffffffffffffffffffffffffffffffffffffffffffffffffff1916815260200190815260200160002060006101000a81548160ff021916908315150217905550505050565b600082825260208201905092915050565b7f4552433136353a20696e76616c696420696e7465726661636520696400000000600082015250565b6000620001bb601c8362000172565b9150620001c88262000183565b602082019050919050565b60006020820190508181036000830152620001ee81620001ac565b9050919050565b613cde80620002056000396000f3fe608060405234801561001057600080fd5b50600436106100e95760003560e01c806372b0589c1161008c578063bd85b03911610066578063bd85b03914610292578063c12e5c68146102c2578063e985e9c5146102de578063f242432a1461030e576100e9565b806372b0589c1461022a57806385bff2e714610246578063a22cb46514610276576100e9565b806313ba55df116100c857806313ba55df1461017e5780632eb2c2d6146101ae5780634e1273f4146101ca5780636dcfd841146101fa576100e9565b8062fdd58e146100ee57806301ffc9a71461011e5780630e89341c1461014e575b600080fd5b6101086004803603810190610103919061256a565b61032a565b60405161011591906125b9565b60405180910390f35b6101386004803603810190610133919061262c565b61033e565b6040516101459190612674565b60405180910390f35b6101686004803603810190610163919061268f565b610361565b6040516101759190612755565b60405180910390f35b6101986004803603810190610193919061268f565b610522565b6040516101a591906125b9565b60405180910390f35b6101c860048036038101906101c39190612974565b610534565b005b6101e460048036038101906101df9190612b06565b6105c8565b6040516101f19190612c3c565b60405180910390f35b610214600480360381019061020f919061268f565b6107bd565b6040516102219190612d1c565b60405180910390f35b610244600480360381019061023f9190612d3e565b6107cf565b005b610260600480360381019061025b9190612d91565b6107ef565b60405161026d9190612c3c565b60405180910390f35b610290600480360381019061028b9190612dea565b610801565b005b6102ac60048036038101906102a7919061268f565b610976565b6040516102b991906125b9565b60405180910390f35b6102dc60048036038101906102d79190612d3e565b610988565b005b6102f860048036038101906102f39190612e2a565b610998565b6040516103059190612674565b60405180910390f35b61032860048036038101906103239190612e6a565b610a35565b005b60006103368383610bcf565b905092915050565b600061035a8261034c610ac9565b610ca290919063ffffffff16565b9050919050565b6060600061036d610d0d565b90506000816001016000858152602001908152602001600020805461039190612f30565b80601f01602080910402602001604051908101604052809291908181526020018280546103bd90612f30565b801561040a5780601f106103df5761010080835404028352916020019161040a565b820191906000526020600020905b8154815290600101906020018083116103ed57829003601f168201915b50505050509050600082600001805461042290612f30565b80601f016020809104026020016040519081016040528092919081815260200182805461044e90612f30565b801561049b5780601f106104705761010080835404028352916020019161049b565b820191906000526020600020905b81548152906001019060200180831161047e57829003601f168201915b505050505090506000815114156104b75781935050505061051d565b6000825111156104ed5780826040516020016104d4929190612f9e565b604051602081830303815290604052935050505061051d565b806104f786610d3a565b604051602001610508929190612f9e565b60405160208183030381529060405293505050505b919050565b600061052d82610e9b565b9050919050565b3373ffffffffffffffffffffffffffffffffffffffff168573ffffffffffffffffffffffffffffffffffffffff16148061057457506105738533610998565b5b6105b3576040517f08c379a00000000000000000000000000000000000000000000000000000000081526004016105aa90613034565b60405180910390fd5b6105c1338686868686610ec8565b5050505050565b6060815183511461060e576040517f08c379a0000000000000000000000000000000000000000000000000000000008152600401610605906130c6565b60405180910390fd5b6000610618610eec565b60000190506000845167ffffffffffffffff81111561063a5761063961277c565b5b6040519080825280602002602001820160405280156106685781602001602082028036833780820191505090505b50905060005b85518110156107b157600073ffffffffffffffffffffffffffffffffffffffff168682815181106106a2576106a16130e6565b5b602002602001015173ffffffffffffffffffffffffffffffffffffffff161415610701576040517f08c379a00000000000000000000000000000000000000000000000000000000081526004016106f890613187565b60405180910390fd5b826000868381518110610717576107166130e6565b5b602002602001015181526020019081526020016000206000878381518110610742576107416130e6565b5b602002602001015173ffffffffffffffffffffffffffffffffffffffff1673ffffffffffffffffffffffffffffffffffffffff16815260200190815260200160002054828281518110610798576107976130e6565b5b602002602001018181525050808060010191505061066e565b50809250505092915050565b60606107c882610f19565b9050919050565b6107ea8383836040518060200160405280600081525061101b565b505050565b60606107fa8261119f565b9050919050565b8173ffffffffffffffffffffffffffffffffffffffff163373ffffffffffffffffffffffffffffffffffffffff161415610870576040517f08c379a000000000000000000000000000000000000000000000000000000000815260040161086790613219565b60405180910390fd5b80610879610eec565b60010160003373ffffffffffffffffffffffffffffffffffffffff1673ffffffffffffffffffffffffffffffffffffffff16815260200190815260200160002060008473ffffffffffffffffffffffffffffffffffffffff1673ffffffffffffffffffffffffffffffffffffffff16815260200190815260200160002060006101000a81548160ff0219169083151502179055508173ffffffffffffffffffffffffffffffffffffffff163373ffffffffffffffffffffffffffffffffffffffff167f17307eab39ab6107e8899845ad3d59bd9653f200f220920489ca2b5937696c318360405161096a9190612674565b60405180910390a35050565b60006109818261129f565b9050919050565b6109938383836112c5565b505050565b60006109a2610eec565b60010160008473ffffffffffffffffffffffffffffffffffffffff1673ffffffffffffffffffffffffffffffffffffffff16815260200190815260200160002060008373ffffffffffffffffffffffffffffffffffffffff1673ffffffffffffffffffffffffffffffffffffffff16815260200190815260200160002060009054906101000a900460ff16905092915050565b3373ffffffffffffffffffffffffffffffffffffffff168573ffffffffffffffffffffffffffffffffffffffff161480610a755750610a748533610998565b5b610ab4576040517f08c379a0000000000000000000000000000000000000000000000000000000008152600401610aab90613034565b60405180910390fd5b610ac23386868686866114d5565b5050505050565b6000807f326d0c59a7612f6a9919e2a8ee333c80ba689d8ba2634de89c85cbb04832e70590508091505090565b63ffffffff60e01b827bffffffffffffffffffffffffffffffffffffffffffffffffffffffff19161415610b5f576040517f08c379a0000000000000000000000000000000000000000000000000000000008152600401610b5690613285565b60405180910390fd5b80836000016000847bffffffffffffffffffffffffffffffffffffffffffffffffffffffff19167bffffffffffffffffffffffffffffffffffffffffffffffffffffffff1916815260200190815260200160002060006101000a81548160ff021916908315150217905550505050565b60008073ffffffffffffffffffffffffffffffffffffffff168373ffffffffffffffffffffffffffffffffffffffff161415610c40576040517f08c379a0000000000000000000000000000000000000000000000000000000008152600401610c3790613317565b60405180910390fd5b610c48610eec565b600001600083815260200190815260200160002060008473ffffffffffffffffffffffffffffffffffffffff1673ffffffffffffffffffffffffffffffffffffffff16815260200190815260200160002054905092915050565b6000826000016000837bffffffffffffffffffffffffffffffffffffffffffffffffffffffff19167bffffffffffffffffffffffffffffffffffffffffffffffffffffffff1916815260200190815260200160002060009054906101000a900460ff16905092915050565b6000807f4281b61aefbe70b3d3f684b428efca5f33077bc240e76f2808f9177c307617f490508091505090565b60606000821415610d82576040518060400160405280600181526020017f30000000000000000000000000000000000000000000000000000000000000008152509050610e96565b600082905060005b60008214610db4578080610d9d90613366565b915050600a82610dad91906133de565b9150610d8a565b60008167ffffffffffffffff811115610dd057610dcf61277c565b5b6040519080825280601f01601f191660200182016040528015610e025781602001600182028036833780820191505090505b5090505b60008514610e8f57600182610e1b919061340f565b9150600a85610e2a9190613443565b6030610e369190613474565b60f81b818381518110610e4c57610e4b6130e6565b5b60200101907effffffffffffffffffffffffffffffffffffffffffffffffffffffffffffff1916908160001a905350600a85610e8891906133de565b9450610e06565b8093505050505b919050565b6000610ec1610ea86114f9565b6001016000848152602001908152602001600020611526565b9050919050565b610ed686868686868661153b565b610ee4868686868686611841565b505050505050565b6000807f1799cf914cb0cb442ca7c7ac709ee40d0cb89e87351dc08d517fbda27d50c68b90508091505090565b60606000610f256114f9565b600101600084815260200190815260200160002090506000610f4682611526565b67ffffffffffffffff811115610f5f57610f5e61277c565b5b604051908082528060200260200182016040528015610f8d5781602001602082028036833780820191505090505b50905060005b610f9c83611526565b81101561101057610fb68184611a1990919063ffffffff16565b828281518110610fc957610fc86130e6565b5b602002602001019073ffffffffffffffffffffffffffffffffffffffff16908173ffffffffffffffffffffffffffffffffffffffff16815250508080600101915050610f93565b508092505050919050565b600073ffffffffffffffffffffffffffffffffffffffff168473ffffffffffffffffffffffffffffffffffffffff16141561108b576040517f08c379a00000000000000000000000000000000000000000000000000000000081526004016110829061353c565b60405180910390fd5b6110aa3360008661109b87611a33565b6110a487611a33565b86611aad565b816110b3610eec565b600001600085815260200190815260200160002060008673ffffffffffffffffffffffffffffffffffffffff1673ffffffffffffffffffffffffffffffffffffffff16815260200190815260200160002060008282546111139190613474565b925050819055508373ffffffffffffffffffffffffffffffffffffffff16600073ffffffffffffffffffffffffffffffffffffffff163373ffffffffffffffffffffffffffffffffffffffff167fc3d58168c5ae7397731d063d5bbf3d657854427343f4c083240f7aacaa2d0f62868660405161119192919061355c565b60405180910390a450505050565b606060006111ab6114f9565b60020160008473ffffffffffffffffffffffffffffffffffffffff1673ffffffffffffffffffffffffffffffffffffffff168152602001908152602001600020905060006111f882611ac3565b67ffffffffffffffff8111156112115761121061277c565b5b60405190808252806020026020018201604052801561123f5781602001602082028036833780820191505090505b50905060005b61124e83611ac3565b811015611294576112688184611ad890919063ffffffff16565b82828151811061127b5761127a6130e6565b5b6020026020010181815250508080600101915050611245565b508092505050919050565b60006112a96114f9565b6000016000838152602001908152602001600020549050919050565b600073ffffffffffffffffffffffffffffffffffffffff168373ffffffffffffffffffffffffffffffffffffffff161415611335576040517f08c379a000000000000000000000000000000000000000000000000000000000815260040161132c906135f7565b60405180910390fd5b6113633384600061134586611a33565b61134e86611a33565b60405180602001604052806000815250611aad565b600061136d610eec565b60000160008481526020019081526020016000209050818160008673ffffffffffffffffffffffffffffffffffffffff1673ffffffffffffffffffffffffffffffffffffffff168152602001908152602001600020541015611404576040517f08c379a00000000000000000000000000000000000000000000000000000000081526004016113fb90613689565b60405180910390fd5b818160008673ffffffffffffffffffffffffffffffffffffffff1673ffffffffffffffffffffffffffffffffffffffff16815260200190815260200160002060008282540392505081905550600073ffffffffffffffffffffffffffffffffffffffff168473ffffffffffffffffffffffffffffffffffffffff163373ffffffffffffffffffffffffffffffffffffffff167fc3d58168c5ae7397731d063d5bbf3d657854427343f4c083240f7aacaa2d0f6286866040516114c792919061355c565b60405180910390a450505050565b6114e3868686868686611af2565b6114f1868686868686611d6a565b505050505050565b6000807fb31c2c74f86ca3ce94d901f5f5bbe66f7161eec2f7b5aa0b75a86371436424ea90508091505090565b600061153482600001611f42565b9050919050565b600073ffffffffffffffffffffffffffffffffffffffff168473ffffffffffffffffffffffffffffffffffffffff1614156115ab576040517f08c379a00000000000000000000000000000000000000000000000000000000081526004016115a29061371b565b60405180910390fd5b81518351146115ef576040517f08c379a00000000000000000000000000000000000000000000000000000000081526004016115e6906137ad565b60405180910390fd5b6115fd868686868686611aad565b6000611607610eec565b600001905060005b84518110156117b957600085828151811061162d5761162c6130e6565b5b60200260200101519050600085838151811061164c5761164b6130e6565b5b60200260200101519050600084600084815260200190815260200160002060008b73ffffffffffffffffffffffffffffffffffffffff1673ffffffffffffffffffffffffffffffffffffffff168152602001908152602001600020549050818110156116ed576040517f08c379a00000000000000000000000000000000000000000000000000000000081526004016116e49061383f565b60405180910390fd5b81810385600085815260200190815260200160002060008c73ffffffffffffffffffffffffffffffffffffffff1673ffffffffffffffffffffffffffffffffffffffff168152602001908152602001600020819055508380600101945050508084600084815260200190815260200160002060008a73ffffffffffffffffffffffffffffffffffffffff1673ffffffffffffffffffffffffffffffffffffffff16815260200190815260200160002060008282546117ab9190613474565b92505081905550505061160f565b508473ffffffffffffffffffffffffffffffffffffffff168673ffffffffffffffffffffffffffffffffffffffff168873ffffffffffffffffffffffffffffffffffffffff167f4a39dc06d4c0dbc64b70af90fd698a233a518aa5d07e595d983b8c0526c8f7fb878760405161183092919061385f565b60405180910390a450505050505050565b6118608473ffffffffffffffffffffffffffffffffffffffff16611f53565b15611a11578373ffffffffffffffffffffffffffffffffffffffff1663bc197c8187878686866040518663ffffffff1660e01b81526004016118a69594939291906138fa565b6020604051808303816000875af19250505080156118e257506040513d601f19601f820116820180604052508101906118df9190613977565b60015b611988576118ee6139b1565b806308c379a0141561194b57506119036139d3565b8061190e575061194d565b806040517f08c379a00000000000000000000000000000000000000000000000000000000081526004016119429190612755565b60405180910390fd5b505b6040517f08c379a000000000000000000000000000000000000000000000000000000000815260040161197f90613adb565b60405180910390fd5b63bc197c8160e01b7bffffffffffffffffffffffffffffffffffffffffffffffffffffffff1916817bffffffffffffffffffffffffffffffffffffffffffffffffffffffff191614611a0f576040517f08c379a0000000000000000000000000000000000000000000000000000000008152600401611a0690613b6d565b60405180910390fd5b505b505050505050565b6000611a288360000183611f66565b60001c905092915050565b60606000600167ffffffffffffffff811115611a5257611a5161277c565b5b604051908082528060200260200182016040528015611a805781602001602082028036833780820191505090505b5090508281600081518110611a9857611a976130e6565b5b60200260200101818152505080915050919050565b611abb868686868686611fda565b505050505050565b6000611ad182600001611f42565b9050919050565b6000611ae78360000183611f66565b60001c905092915050565b600073ffffffffffffffffffffffffffffffffffffffff168473ffffffffffffffffffffffffffffffffffffffff161415611b62576040517f08c379a0000000000000000000000000000000000000000000000000000000008152600401611b599061371b565b60405180910390fd5b611b80868686611b7187611a33565b611b7a87611a33565b86611aad565b6000611b8a610eec565b6000019050600081600086815260200190815260200160002060008873ffffffffffffffffffffffffffffffffffffffff1673ffffffffffffffffffffffffffffffffffffffff16815260200190815260200160002054905083811015611c26576040517f08c379a0000000000000000000000000000000000000000000000000000000008152600401611c1d9061383f565b60405180910390fd5b83810382600087815260200190815260200160002060008973ffffffffffffffffffffffffffffffffffffffff1673ffffffffffffffffffffffffffffffffffffffff16815260200190815260200160002081905550508281600086815260200190815260200160002060008773ffffffffffffffffffffffffffffffffffffffff1673ffffffffffffffffffffffffffffffffffffffff1681526020019081526020016000206000828254611cdc9190613474565b925050819055508473ffffffffffffffffffffffffffffffffffffffff168673ffffffffffffffffffffffffffffffffffffffff168873ffffffffffffffffffffffffffffffffffffffff167fc3d58168c5ae7397731d063d5bbf3d657854427343f4c083240f7aacaa2d0f628787604051611d5992919061355c565b60405180910390a450505050505050565b611d898473ffffffffffffffffffffffffffffffffffffffff16611f53565b15611f3a578373ffffffffffffffffffffffffffffffffffffffff1663f23a6e6187878686866040518663ffffffff1660e01b8152600401611dcf959493929190613b8d565b6020604051808303816000875af1925050508015611e0b57506040513d601f19601f82011682018060405250810190611e089190613977565b60015b611eb157611e176139b1565b806308c379a01415611e745750611e2c6139d3565b80611e375750611e76565b806040517f08c379a0000000000000000000000000000000000000000000000000000000008152600401611e6b9190612755565b60405180910390fd5b505b6040517f08c379a0000000000000000000000000000000000000000000000000000000008152600401611ea890613adb565b60405180910390fd5b63f23a6e6160e01b7bffffffffffffffffffffffffffffffffffffffffffffffffffffffff1916817bffffffffffffffffffffffffffffffffffffffffffffffffffffffff191614611f38576040517f08c379a0000000000000000000000000000000000000000000000000000000008152600401611f2f90613b6d565b60405180910390fd5b505b505050505050565b600081600001805490509050919050565b600080823b905060008111915050919050565b600081836000018054905011611fb1576040517f08c379a0000000000000000000000000000000000000000000000000000000008152600401611fa890613c59565b60405180910390fd5b826000018281548110611fc757611fc66130e6565b5b9060005260206000200154905092915050565b611fe8868686868686611ff0565b505050505050565b611ffe8686868686866122a5565b8373ffffffffffffffffffffffffffffffffffffffff168573ffffffffffffffffffffffffffffffffffffffff161461229d57600061203b6114f9565b9050600081600101905060008260020160008973ffffffffffffffffffffffffffffffffffffffff1673ffffffffffffffffffffffffffffffffffffffff168152602001908152602001600020905060008360020160008973ffffffffffffffffffffffffffffffffffffffff1673ffffffffffffffffffffffffffffffffffffffff168152602001908152602001600020905060005b87518110156122975760008782815181106120f0576120ef6130e6565b5b602002602001015190506000811115612289576000898381518110612118576121176130e6565b5b60200260200101519050600073ffffffffffffffffffffffffffffffffffffffff168c73ffffffffffffffffffffffffffffffffffffffff1614156121885781876000016000838152602001908152602001600020600082825461217c9190613474565b925050819055506121d4565b816121938d83610bcf565b14156121d3576121bd8c8760008481526020019081526020016000206122ad90919063ffffffff16565b506121d181866122dd90919063ffffffff16565b505b5b600073ffffffffffffffffffffffffffffffffffffffff168b73ffffffffffffffffffffffffffffffffffffffff16141561223a5781876000016000838152602001908152602001600020600082825461222e919061340f565b92505081905550612287565b60006122468c83610bcf565b1415612286576122708b8760008481526020019081526020016000206122f790919063ffffffff16565b50612284818561232790919063ffffffff16565b505b5b505b8180600101925050506120d2565b50505050505b505050505050565b505050505050565b60006122d5836000018373ffffffffffffffffffffffffffffffffffffffff1660001b612341565b905092915050565b60006122ef836000018360001b612341565b905092915050565b600061231f836000018373ffffffffffffffffffffffffffffffffffffffff1660001b61242f565b905092915050565b6000612339836000018360001b61242f565b905092915050565b6000808360010160008481526020019081526020016000205490506000811461242357600084600001600186600001805490500381548110612386576123856130e6565b5b90600052602060002001549050808560000160018403815481106123ad576123ac6130e6565b5b9060005260206000200181905550818560010160008381526020019081526020016000208190555050836000018054806123ea576123e9613c79565b5b60019003818190600052602060002001600090559055836001016000848152602001908152602001600020600090556001915050612429565b60009150505b92915050565b600061243b838361249f565b612494578260000182908060018154018082558091505060019003906000526020600020016000909190919091505582600001805490508360010160008481526020019081526020016000208190555060019050612499565b600090505b92915050565b600080836001016000848152602001908152602001600020541415905092915050565b6000604051905090565b600080fd5b600080fd5b600073ffffffffffffffffffffffffffffffffffffffff82169050919050565b6000612501826124d6565b9050919050565b612511816124f6565b811461251c57600080fd5b50565b60008135905061252e81612508565b92915050565b6000819050919050565b61254781612534565b811461255257600080fd5b50565b6000813590506125648161253e565b92915050565b60008060408385031215612581576125806124cc565b5b600061258f8582860161251f565b92505060206125a085828601612555565b9150509250929050565b6125b381612534565b82525050565b60006020820190506125ce60008301846125aa565b92915050565b60007fffffffff0000000000000000000000000000000000000000000000000000000082169050919050565b612609816125d4565b811461261457600080fd5b50565b60008135905061262681612600565b92915050565b600060208284031215612642576126416124cc565b5b600061265084828501612617565b91505092915050565b60008115159050919050565b61266e81612659565b82525050565b60006020820190506126896000830184612665565b92915050565b6000602082840312156126a5576126a46124cc565b5b60006126b384828501612555565b91505092915050565b600081519050919050565b600082825260208201905092915050565b60005b838110156126f65780820151818401526020810190506126db565b83811115612705576000848401525b50505050565b6000601f19601f8301169050919050565b6000612727826126bc565b61273181856126c7565b93506127418185602086016126d8565b61274a8161270b565b840191505092915050565b6000602082019050818103600083015261276f818461271c565b905092915050565b600080fd5b7f4e487b7100000000000000000000000000000000000000000000000000000000600052604160045260246000fd5b6127b48261270b565b810181811067ffffffffffffffff821117156127d3576127d261277c565b5b80604052505050565b60006127e66124c2565b90506127f282826127ab565b919050565b600067ffffffffffffffff8211156128125761281161277c565b5b602082029050602081019050919050565b600080fd5b600061283b612836846127f7565b6127dc565b9050808382526020820190506020840283018581111561285e5761285d612823565b5b835b8181101561288757806128738882612555565b845260208401935050602081019050612860565b5050509392505050565b600082601f8301126128a6576128a5612777565b5b81356128b6848260208601612828565b91505092915050565b600080fd5b600067ffffffffffffffff8211156128df576128de61277c565b5b6128e88261270b565b9050602081019050919050565b82818337600083830152505050565b6000612917612912846128c4565b6127dc565b905082815260208101848484011115612933576129326128bf565b5b61293e8482856128f5565b509392505050565b600082601f83011261295b5761295a612777565b5b813561296b848260208601612904565b91505092915050565b600080600080600060a086880312156129905761298f6124cc565b5b600061299e8882890161251f565b95505060206129af8882890161251f565b945050604086013567ffffffffffffffff8111156129d0576129cf6124d1565b5b6129dc88828901612891565b935050606086013567ffffffffffffffff8111156129fd576129fc6124d1565b5b612a0988828901612891565b925050608086013567ffffffffffffffff811115612a2a57612a296124d1565b5b612a3688828901612946565b9150509295509295909350565b600067ffffffffffffffff821115612a5e57612a5d61277c565b5b602082029050602081019050919050565b6000612a82612a7d84612a43565b6127dc565b90508083825260208201905060208402830185811115612aa557612aa4612823565b5b835b81811015612ace5780612aba888261251f565b845260208401935050602081019050612aa7565b5050509392505050565b600082601f830112612aed57612aec612777565b5b8135612afd848260208601612a6f565b91505092915050565b60008060408385031215612b1d57612b1c6124cc565b5b600083013567ffffffffffffffff811115612b3b57612b3a6124d1565b5b612b4785828601612ad8565b925050602083013567ffffffffffffffff811115612b6857612b676124d1565b5b612b7485828601612891565b9150509250929050565b600081519050919050565b600082825260208201905092915050565b6000819050602082019050919050565b612bb381612534565b82525050565b6000612bc58383612baa565b60208301905092915050565b6000602082019050919050565b6000612be982612b7e565b612bf38185612b89565b9350612bfe83612b9a565b8060005b83811015612c2f578151612c168882612bb9565b9750612c2183612bd1565b925050600181019050612c02565b5085935050505092915050565b60006020820190508181036000830152612c568184612bde565b905092915050565b600081519050919050565b600082825260208201905092915050565b6000819050602082019050919050565b612c93816124f6565b82525050565b6000612ca58383612c8a565b60208301905092915050565b6000602082019050919050565b6000612cc982612c5e565b612cd38185612c69565b9350612cde83612c7a565b8060005b83811015612d0f578151612cf68882612c99565b9750612d0183612cb1565b925050600181019050612ce2565b5085935050505092915050565b60006020820190508181036000830152612d368184612cbe565b905092915050565b600080600060608486031215612d5757612d566124cc565b5b6000612d658682870161251f565b9350506020612d7686828701612555565b9250506040612d8786828701612555565b9150509250925092565b600060208284031215612da757612da66124cc565b5b6000612db58482850161251f565b91505092915050565b612dc781612659565b8114612dd257600080fd5b50565b600081359050612de481612dbe565b92915050565b60008060408385031215612e0157612e006124cc565b5b6000612e0f8582860161251f565b9250506020612e2085828601612dd5565b9150509250929050565b60008060408385031215612e4157612e406124cc565b5b6000612e4f8582860161251f565b9250506020612e608582860161251f565b9150509250929050565b600080600080600060a08688031215612e8657612e856124cc565b5b6000612e948882890161251f565b9550506020612ea58882890161251f565b9450506040612eb688828901612555565b9350506060612ec788828901612555565b925050608086013567ffffffffffffffff811115612ee857612ee76124d1565b5b612ef488828901612946565b9150509295509295909350565b7f4e487b7100000000000000000000000000000000000000000000000000000000600052602260045260246000fd5b60006002820490506001821680612f4857607f821691505b60208210811415612f5c57612f5b612f01565b5b50919050565b600081905092915050565b6000612f78826126bc565b612f828185612f62565b9350612f928185602086016126d8565b80840191505092915050565b6000612faa8285612f6d565b9150612fb68284612f6d565b91508190509392505050565b7f455243313135353a2063616c6c6572206973206e6f74206f776e6572206e6f7260008201527f20617070726f7665640000000000000000000000000000000000000000000000602082015250565b600061301e6029836126c7565b915061302982612fc2565b604082019050919050565b6000602082019050818103600083015261304d81613011565b9050919050565b7f455243313135353a206163636f756e747320616e6420696473206c656e67746860008201527f206d69736d617463680000000000000000000000000000000000000000000000602082015250565b60006130b06029836126c7565b91506130bb82613054565b604082019050919050565b600060208201905081810360008301526130df816130a3565b9050919050565b7f4e487b7100000000000000000000000000000000000000000000000000000000600052603260045260246000fd5b7f455243313135353a2062617463682062616c616e636520717565727920666f7260008201527f20746865207a65726f2061646472657373000000000000000000000000000000602082015250565b60006131716031836126c7565b915061317c82613115565b604082019050919050565b600060208201905081810360008301526131a081613164565b9050919050565b7f455243313135353a2073657474696e6720617070726f76616c2073746174757360008201527f20666f722073656c660000000000000000000000000000000000000000000000602082015250565b60006132036029836126c7565b915061320e826131a7565b604082019050919050565b60006020820190508181036000830152613232816131f6565b9050919050565b7f4552433136353a20696e76616c696420696e7465726661636520696400000000600082015250565b600061326f601c836126c7565b915061327a82613239565b602082019050919050565b6000602082019050818103600083015261329e81613262565b9050919050565b7f455243313135353a2062616c616e636520717565727920666f7220746865207a60008201527f65726f2061646472657373000000000000000000000000000000000000000000602082015250565b6000613301602b836126c7565b915061330c826132a5565b604082019050919050565b60006020820190508181036000830152613330816132f4565b9050919050565b7f4e487b7100000000000000000000000000000000000000000000000000000000600052601160045260246000fd5b600061337182612534565b91507fffffffffffffffffffffffffffffffffffffffffffffffffffffffffffffffff8214156133a4576133a3613337565b5b600182019050919050565b7f4e487b7100000000000000000000000000000000000000000000000000000000600052601260045260246000fd5b60006133e982612534565b91506133f483612534565b925082613404576134036133af565b5b828204905092915050565b600061341a82612534565b915061342583612534565b92508282101561343857613437613337565b5b828203905092915050565b600061344e82612534565b915061345983612534565b925082613469576134686133af565b5b828206905092915050565b600061347f82612534565b915061348a83612534565b9250827fffffffffffffffffffffffffffffffffffffffffffffffffffffffffffffffff038211156134bf576134be613337565b5b828201905092915050565b7f455243313135353a206d696e7420746f20746865207a65726f2061646472657360008201527f7300000000000000000000000000000000000000000000000000000000000000602082015250565b60006135266021836126c7565b9150613531826134ca565b604082019050919050565b6000602082019050818103600083015261355581613519565b9050919050565b600060408201905061357160008301856125aa565b61357e60208301846125aa565b9392505050565b7f455243313135353a206275726e2066726f6d20746865207a65726f206164647260008201527f6573730000000000000000000000000000000000000000000000000000000000602082015250565b60006135e16023836126c7565b91506135ec82613585565b604082019050919050565b60006020820190508181036000830152613610816135d4565b9050919050565b7f455243313135353a206275726e20616d6f756e7420657863656564732062616c60008201527f616e636573000000000000000000000000000000000000000000000000000000602082015250565b60006136736025836126c7565b915061367e82613617565b604082019050919050565b600060208201905081810360008301526136a281613666565b9050919050565b7f455243313135353a207472616e7366657220746f20746865207a65726f20616460008201527f6472657373000000000000000000000000000000000000000000000000000000602082015250565b60006137056025836126c7565b9150613710826136a9565b604082019050919050565b60006020820190508181036000830152613734816136f8565b9050919050565b7f455243313135353a2069647320616e6420616d6f756e7473206c656e6774682060008201527f6d69736d61746368000000000000000000000000000000000000000000000000602082015250565b60006137976028836126c7565b91506137a28261373b565b604082019050919050565b600060208201905081810360008301526137c68161378a565b9050919050565b7f455243313135353a20696e73756666696369656e742062616c616e636573206660008201527f6f72207472616e73666572000000000000000000000000000000000000000000602082015250565b6000613829602b836126c7565b9150613834826137cd565b604082019050919050565b600060208201905081810360008301526138588161381c565b9050919050565b600060408201905081810360008301526138798185612bde565b9050818103602083015261388d8184612bde565b90509392505050565b61389f816124f6565b82525050565b600081519050919050565b600082825260208201905092915050565b60006138cc826138a5565b6138d681856138b0565b93506138e68185602086016126d8565b6138ef8161270b565b840191505092915050565b600060a08201905061390f6000830188613896565b61391c6020830187613896565b818103604083015261392e8186612bde565b905081810360608301526139428185612bde565b9050818103608083015261395681846138c1565b90509695505050505050565b60008151905061397181612600565b92915050565b60006020828403121561398d5761398c6124cc565b5b600061399b84828501613962565b91505092915050565b60008160e01c9050919050565b600060033d11156139d05760046000803e6139cd6000516139a4565b90505b90565b600060443d10156139e357613a66565b6139eb6124c2565b60043d036004823e80513d602482011167ffffffffffffffff82111715613a13575050613a66565b808201805167ffffffffffffffff811115613a315750505050613a66565b80602083010160043d038501811115613a4e575050505050613a66565b613a5d826020018501866127ab565b82955050505050505b90565b7f455243313135353a207472616e7366657220746f206e6f6e204552433131353560008201527f526563656976657220696d706c656d656e746572000000000000000000000000602082015250565b6000613ac56034836126c7565b9150613ad082613a69565b604082019050919050565b60006020820190508181036000830152613af481613ab8565b9050919050565b7f455243313135353a204552433131353552656365697665722072656a6563746560008201527f6420746f6b656e73000000000000000000000000000000000000000000000000602082015250565b6000613b576028836126c7565b9150613b6282613afb565b604082019050919050565b60006020820190508181036000830152613b8681613b4a565b9050919050565b600060a082019050613ba26000830188613896565b613baf6020830187613896565b613bbc60408301866125aa565b613bc960608301856125aa565b8181036080830152613bdb81846138c1565b90509695505050505050565b7f456e756d657261626c655365743a20696e646578206f7574206f6620626f756e60008201527f6473000000000000000000000000000000000000000000000000000000000000602082015250565b6000613c436022836126c7565b9150613c4e82613be7565b604082019050919050565b60006020820190508181036000830152613c7281613c36565b9050919050565b7f4e487b7100000000000000000000000000000000000000000000000000000000600052603160045260246000fdfea2646970667358221220c63410f90048c03739fda64c88bb6415f05eb5999953c8c0e4d2b41f1b9408e764736f6c634300080c0033",
  "linkReferences": {},
  "deployedLinkReferences": {}
}